:020000040800F2
:1000000078140020D5260008390200083B020008B9
:100010003F020008430200084702000800000000F9
:100020000000000000000000000000004B0200087B
:100030004D020008000000004F020008CD26000815
:10004000EF260008EF260008EF2600080F22000820
:10005000EF260008EF260008810C0008EF260008B4
:10006000EF260008AD0C0008D70C0008EF260008AA
:10007000EF260008EF260008EF260008EF2600080C
:10008000EF260008EF260008EF260008EF260008FC
:10009000EF260008EF260008EF260008EF260008EC
:1000A000EF260008EF260008EF260008EF260008DC
:1000B000DF0D0008350D0008EF260008EF260008C8
:1000C000EF260008EF260008EF260008EF260008BC
:1000D000EF260008192500083B140008650E0008EB
:1000E000EF260008EF260008EF260008EF2600089C
:1000F000EF260008EF260008EF260008EF2600088C
:10010000EF260008EF260008EF260008EF2600087B
:10011000EF260008EF260008EF260008EF2600086B
:10012000EF260008EF260008EF260008EF2600085B
:10013000DFF80CD004F03CFC004800474501000803
:100140007814002002F004F94FF4A06002F0D4FA11
:100150004FF4E13002F080F900F0B6FB00F028FD2A
:1001600000F042FD00F067FD01F0F1FF4FF4E130D7
:1001700000F0AAFE012000F024FF4FF4E13000F06F
:10018000ADFF012001F01BF800202649086001F0B6
:100190003EFB41F61F41632000F031FE01F0B4F850
:1001A000214801F069F9214801F066F94FF47A70AD
:1001B00002F00BF901201E49C1F8A001FA2002F05B
:1001C00004F9002017490C3108602AE0194800683A
:1001D00060B900F0EBF9012012490C310860FA20F7
:1001E00002F0F3F800201249C1F8A001114800689C
:1001F000012801D100F072FA0E48006802280CD1E3
:1002000000F030FA012007490C310860FA2002F0B2
:10021000DCF800200649C1F8A0014FF47A7002F022
:10022000D4F8D3E79481214200000020040000208C
:100230000080214210000020704700BFFEE700BF91
:10024000FEE700BFFEE700BFFEE77047704770475C
:100250000CB50020019000906C48006840F480309C
:100260006A49086000BF6948006800F400300090E7
:100270000198401C0190009818B90198B0F5A06F42
:10028000F1D16248006800F4003010B10120009004
:1002900001E0002000900098012843D15C480068EC
:1002A00040F010005A4908600846006820F003003A
:1002B00008600846006840F0020008605348406843
:1002C000524948600846406848600846406840F423
:1002D000806048600846406820F47C10486008460A
:1002E000406840F4E81048600846006840F08070BC
:1002F000086000BF4548006800F000700028F9D091
:100300004248406820F00300404948600846406881
:1003100040F00200486000BF3C48406800F00C001C
:100320000828F9D10CBD10B5FFF792FF10BD10B52C
:100330003648006840F001003449086008464068CB
:10034000344908403149486008460068324908404D
:100350002E4908600846006820F48020086008469E
:10036000406820F4FE0048604FF41F008860FFF7EB
:10037000DAFF4FF000602949086010BD10B5002178
:1003800000200022214B5B6803F00C0121B10429FD
:1003900006D0082928D107E0214B224C236027E012
:1003A0001F4B204C236023E0184B5B6803F4701054
:1003B000164B5B6803F48032022303EB904022B9B2
:1003C000194B4343174C23600DE0104B5B6803F45B
:1003D000003323B1144B4343124C236003E0104B12
:1003E0004343104C236003E00D4B0E4C236000BFD1
:1003F00000BF064B5B68C3F303130C4CE15C094B75
:100400001B68CB40074C236010BD00000010024069
:10041000002002400000FFF8FFFFF6FE08ED00E0BC
:1004200000127A001400002000093D00180000208E
:1004300070B50024052500BF00F0EBFE002850D168
:10044000D7A004F055FBD7A1D74801F04EF80446D9
:100450002CB3D6480168204604F08FF8F8B9D4A12F
:10046000D14801F042F80446CCB1D3A1204604F0B3
:1004700084F818B90120D249086010E0D1A12046C3
:1004800004F07BF818B90220CD49086007E0CFA13D
:10049000204604F072F810B90020C9490860CDA1C7
:1004A000C14801F022F8044654B12078303800B930
:1004B0001EE020783038012802D10220C0490860AF
:1004C000C2A1B94801F011F8044654B1207830387F
:1004D00000B90DE020783038012802D10020B84959
:1004E0000860052001F071FF281EA5F10105A3D1C8
:1004F00000BF70BD1CB504466078303821783039B3
:1005000001EB810100EB4100B4490870E07830381C
:10051000A178303901EB810100EB4100B04908704E
:10052000607930382179303901EB810100EB4100ED
:10053000AC490870E0793038A179303901EB81019C
:1005400000EB4100A8490870607A3038217A3039D0
:1005500001EB810100EB4100A449087008460078D6
:10056000A1490978CDE900109E4803789C4802789B
:100570009A48017840F2E77001F08DFD1CBD0146FC
:10058000002010E09A4A128802EB82024FF6FF73B5
:1005900003EA4202964B1A800A5C303A1B881A44DE
:1005A000934B1A80401C0428ECDB7047F8B50024FC
:1005B000012503268F48807800908E484378027882
:1005C0008DA1934804F0A4FA92480068904B0090E3
:1005D000764891490268914804F09AFA8F49904808
:1005E000006800F060FF38E015B1FFF721FF30E050
:1005F000052600BF00F00DFE10BB8AA16A4800F07E
:1006000074FF044654B1214688A004F071FA2078A2
:100610003038022802D12046FFF7B1FF85A1624899
:1006200000F063FF04465CB1214680A004F060FA4C
:1006300020783038002803D42046FFF75BFF0125DF
:10064000052001F0C2FE301EA6F10106D2D1FFF74F
:10065000EFFE4FF47A7001F0B8FE594800680028A8
:10066000C2D0F8BD10B588B00020069007902FE0EA
:1006700072A004F03DFA06A801F00AFA0446F4B9A3
:1006800072A004F035FA9DF81F009DF81E109DF829
:100690001D209DF81C30CDE90132CDE903109DF8F5
:1006A0001B0000909DF81A309DF819209DF8181035
:1006B0006BA004F01DFA01204149086002E071A01E
:1006C00004F016FA4FF47A7001F07FFEFFF7B0FEE7
:1006D0003B4800680228CBD008B010BD70B500249C
:1006E0000025002657E0E11704EB91718910A4EB77
:1006F000810109B900F073F9142094FBF0F100FBBB
:10070000114048B96448008800F4004020B101F06D
:10071000EFFE002060490880C82094FBF0F100FB48
:10072000114018B900F082FC00F06AFDB4F5487F72
:1007300000DB0024032600BF00F06BFDE0B90024BD
:10074000194956A004F0D4F95AA1174800F0CDFE7B
:100750000546297859A004F0CBF96DB128783038D6
:1007600018B901205749086006E028783038012878
:1007700002D1002053490860052001F026FE301EFA
:10078000A6F101018EB2D7D1FFF752FE601C84B2F0
:100790000A2001F01AFE0A4800680128A3D070BDA3
:1007A000310D0A0069640000740E00203000002042
:1007B000737461746500000072756E6E696E670017
:1007C000100000207061757365000000726573652C
:1007D000740000006572726F720000003600002025
:1007E0003700002038000020390000203A000020A7
:1007F00034000020A00F0020323032332D382D314C
:1008000020253032643A253032643A253032640093
:100810008F0100203C000020285A00089000002092
:1008200008000020796561727265710025730D0AF8
:10083000000000006461797265710000B5CDC6B535
:10084000BFA8B2E2CAD40D0A00000000B5CDC6B5FB
:10085000BFA8BBF1C8A1B3C9B9A6A3A100000000FD
:10086000696420636172643A255820255820255810
:100870002025582025582025582025582025580D5A
:100880000A000000B5CDC6B5BFA8BBF1C8A1CAA774
:10089000B0DCA3A10000000074000020CAD5B5BDE3
:1008A000B7FECEF1C6F7D0C5CFA2A3BA25730D0A05
:1008B000000000004C45445F5357000025630D0ABB
:1008C000000000009481214208B50121482002F077
:1008D0009DFA2020ADF8000010208DF803000320C1
:1008E0008DF802006946094801F0D4FF202107482D
:1008F00002F07DF82020ADF800006946044801F0C0
:10090000C9FF2021024802F072F808BD000C014026
:100910000018014008B50121442002F077FA1820A0
:10092000ADF8000048208DF803006946644801F0E6
:10093000B1FF0120ADF8000028208DF803006946C2
:10094000604801F0A7FF08BD10B5044614B10120AE
:100950005D4908705C48007858B31021584802F08F
:100960002CF850B10821564802F027F828B101218F
:10097000544802F022F801281BD10A2001F025FD7D
:1009800000205149087010214D4802F016F808B9AE
:10099000012010BD08214A4802F00FF808B90220D2
:1009A000F7E70121474802F008F8012815D1032094
:1009B000EFE71021424802F000F801280DD108218C
:1009C0003F4801F0FAFF012807D101213D4801F01D
:1009D000F4FF10B901203C4908700020D9E710B598
:1009E0008AB00020FFF7B0FF04460CB90AB010BD72
:1009F000012C3DD1FF21354803F091FD34480268B8
:100A00003448016834A004F073F83848006830B9FD
:100A1000374838A102682D4804F07AF822E03348BC
:100A20000068012814D143488078009041484378F9
:100A3000027841A102A804F06BF802A80090444893
:100A400003682B4843490268204804F061F809E034
:100A500026480068022805D125483FA102681B48A6
:100A600004F056F819494C48006800F01CFD21E0DC
:100A7000022C1FD1FF21154803F051FD02201B4914
:100A800008602C48807800902A48437802782AA190
:100A900002A804F03DF84148006802AB00901448F9
:100AA0003F490268094804F033F808493D480068A6
:100AB00000F0F9FC3CA004F01BF800BF96E7000032
:100AC0000018014000080140440000209000002070
:100AD0002C0000202800002074656D703A256420E9
:100AE00068756D3A25640D0A0000000010000020B2
:100AF000300000207B5C2269645C223A5C22257312
:100B00005C225C2C5C226C6F636174696F6E5C228A
:100B10003A5C226C6962726172795C225C2C5C22A4
:100B200073746174655C223A5C2272657365745CEF
:100B3000227D0000A00F0020323032332D382D31BD
:100B400020253032643A253032643A253032640050
:100B500040000020985A00087B5C2269645C223ABD
:100B60005C2225735C225C2C5C226C6F636174696F
:100B70006F6E5C223A5C226C6962726172795C22EF
:100B80005C2C5C2273746174655C223A5C22706137
:100B90007573655C227D00000C0000203C00002085
:100BA000E05A00080800002035350D0A000000005A
:100BB00008B50121082002F029F94FF48070ADF842
:100BC000000010208DF8030003208DF80200694614
:100BD000044801F05FFE4FF48071024801F009FF04
:100BE00008BD0000000C01400EB5FFF793FE012187
:100BF000084602F00BF90421084601F061FF1020BD
:100C0000019001208DF80A0000208DF808000C20CA
:100C10008DF8090001A802F06FFB0A208DF8000092
:100C200001208DF803008DF801008DF80200684660
:100C300001F067FD0EBD0EB50121084602F0E6F891
:100C40000321042001F03CFF0820019001208DF8D1
:100C50000A0000208DF808000C208DF8090001A87A
:100C600002F04AFB09208DF8000001208DF80300F6
:100C70008DF801008DF80200684601F042FD0EBDBE
:100C800010B50A2001F0A1FB01211D4801F095FEDD
:100C9000012807D11B48006808B9012000E00020A6
:100CA00018490860012002F09EFB10BD10B50A2013
:100CB00001F08BFB0821144801F07FFE38B90020B9
:100CC00010490C39086001201049C1F8940108202E
:100CD00002F089FB10BD10B50A2001F076FB10214F
:100CE000094801F06AFE38B9012006490C3908604C
:100CF00000200649C1F89401102002F074FB10BDD9
:100D000000080140A0812142001801400000234258
:100D100010B504460021504803F032FA4E482C30FA
:100D2000008800204C492C31088008460088204368
:100D3000088010BD10B50121474803F056FA68B18C
:100D40000121454803F062FA4448008840F400401D
:100D5000424908800021404802F07EFF10BD7FB567
:100D600005460C460121022002F05DF8ADF8045062
:100D7000ADF800400020ADF80600ADF8020069466D
:100D8000354802F00DFC01221146334802F07FFF86
:100D90000121314802F060FF1D208DF80C00002079
:100DA0008DF80D0002208DF80E0001208DF80F0047
:100DB00003A801F0A6FC7FBD10B5044600214FF04A
:100DC000804003F0DDF94FF08040808D00204FF02F
:100DD000804188850846808D2043888510BD10B5E8
:100DE0000121880703F001FA40B11D480068401C4A
:100DF0001B4908600121880703F008FA10BD7FB580
:100E000005460C460121084602F00DF8ADF80450E5
:100E1000ADF800400020ADF80600ADF802006946CC
:100E20004FF0804002F0BCFB01221146900702F017
:100E30002EFF0121880702F00FFF1C208DF80C0007
:100E400002208DF80D008DF80E0001208DF80F00A6
:100E500003A801F056FC7FBD0004004048000020BC
:100E60007800002010B540F22551614802F0F2F9F7
:100E700010B35F4802F06EF9C4B25E48008800F417
:100E80000040C8B95B480088B0F5806F15DA5A4851
:100E9000007850B90021594803F072F9554800888C
:100EA00018B90121554802F0D7FE52490888411C63
:100EB000504A118052490C5405E04E48008840F4D5
:100EC00000404C49088010BD1CB504460121082093
:100ED00001F09CFF0121880401F0A5FF444801F0C6
:100EE000F9FF4FF48060ADF8000003208DF8020098
:100EF00018208DF803006946424801F0CBFC4FF4FE
:100F00000060ADF8000004208DF8030069463D48FC
:100F100001F0C0FC3C48046000203B498880C88048
:100F2000088188810C204881314802F016F801219F
:100F30002F4802F09EF8012240F225512C4802F081
:100F4000A4F827208DF8040002208DF80500032066
:100F50008DF8060001208DF8070001A801F0D1FBF3
:100F600041F61F416320FFF7FAFE00202149088067
:100F70000021224802F070FE1CBD0FB438B505A850
:100F800000902248009A049903F0ECFD00200090A4
:100F90001E4803F0EBFA85B200240DE000BF4021AB
:100FA000134802F041F90028F9D01848015D1048B3
:100FB00002F0CCF8601C84B2AC42EFDB38BC5DF8C8
:100FC00014FB10B504460021094802F052F81CB188
:100FD0000C200D49488102E008200B4948810A494C
:100FE000034801F0BAFF0121014802F042F810BDA8
:100FF00000480040480000204C0000200004004051
:10100000A4010020000C0140FC070020A4050020E2
:1010100000B5C1B04FF48072214901A803F066FA0F
:1010200001A920A0FFF7A9FF41B000BD70B50025C0
:101030001E48008800F4004000282FD01B4800887C
:10104000C0F30E0500201A4948551849088019A018
:1010500003F04EFD164913A003F04AFD1AA11448EF
:1010600000F043FA04464CB16078303821783039CA
:1010700001EB810100EB41001549086015A10C4806
:1010800000F033FA04464CB16078303821783039BA
:1010900001EB810100EB41000F49086070BD704712
:1010A000E858000825730D0A0000000048000020E1
:1010B000A4010020BDD3CAD5B5BDB5C4CAFDBEDDEF
:1010C000CEAA0D0A0000000074656D7000000000DB
:1010D0002800002068756D002C0000201CB5044617
:1010E0000121042001F092FE0121480401F09BFE41
:1010F0003E4801F0EFFE0420ADF8000003208DF81B
:10110000020018208DF803006946394801F0C2FB3F
:101110000820ADF8000004208DF80300694634482B
:1011200001F0B8FB33480460002032498880C88051
:10113000088188810C2048812C4801F00EFF012194
:101140002A4801F096FF012240F22551274801F07C
:101150009CFF26208DF8040002208DF805008DF8F4
:10116000060001208DF8070001A801F0CAFA00204E
:10117000214908801CBD0FB438B505A800901F4850
:10118000009A049903F0EEFC002000901B4803F045
:10119000EDF985B200240DE000BF4021134802F0B4
:1011A00043F80028F9D01548015D104801F0CEFF42
:1011B000601C84B2AC42EFDB38BC5DF814FB10B5A8
:1011C00004460021094801F054FF1CB10C200949D4
:1011D000488102E00820074948810649034801F098
:1011E000BCFE0121014801F044FF10BD0044004055
:1011F00000080140640E00205C0000200C0C002060
:1012000010B5C821E54803F08AF90020E4490880B8
:1012100010BDE348008808B901207047E048008805
:10122000E0490988884203D10020DD490880F4E7BD
:10123000DB480088DB4908800120EEE72DE9F0411A
:1012400004460D46C826204603F090F987B23A4678
:101250002146D54801F0C1F913E0FFF7DAFF68B97C
:101260002946CE4803F066F920B1FFF7C9FF0020F8
:10127000BDE8F081C949CDA003F03AFC0A2001F095
:10128000A4F8301EA6F10101CEB2E6D10120EFE7AD
:1012900030B589B004460D46FFF7B2FF2A46C5A116
:1012A00001A803F035FCC7A101A8FFF7C7FF20B9CB
:1012B0002A462146BC4801F090F909B030BD70B50E
:1012C0000546002400BFFFF7A4FFA0B9B349BEA0A4
:1012D00003F00EFCBDA1B14803F02CF9044654B153
:1012E0003A21204603F038F9044614B1641C204624
:1012F00070BD0020FCE7052001F067F8681E85B28C
:10130000002DE0DC0020F3E708B50121082001F002
:101310007DFD10208DF803008002ADF80000032051
:101320008DF802006946AD4801F0B4FA00224FF48E
:101330008041AA4801F05FFBFA2001F046F8012243
:101340009103A64801F057FB4FF4FA7001F03DF805
:10135000FFF756FFA2A1A44801F01BF903E04FF4E8
:10136000FA7001F032F8A1A1A1A0FFF767FF0028F1
:10137000F5D1A1A19C4801F00CF98DA1A1A0FFF726
:101380005DFF4FF4FA7001F020F889A1A0A0FFF7EB
:1013900055FF4FF4FA7001F018F8A1A1924801F03E
:1013A000F8F803E04FF4FA7001F00FF88FA19FA056
:1013B000FFF744FF0028F5D1A0A18B4801F0E9F820
:1013C00003E04FF4FA7001F000F888A19FA0FFF746
:1013D00035FF0028F5D1A1A1834801F0DAF803E038
:1013E0004FF4FA7000F0F1FF9FA1A1A0FFF726FFD4
:1013F0000028F5D1A7A17C4801F0CBF803E04FF419
:10140000FA7000F0E2FF79A1A7A0FFF717FF00280C
:10141000F5D1B1A1744801F0BCF803E04FF4FA70C3
:1014200000F0D3FF71A1B0A0FFF708FF0028F5D1AD
:10143000B7A16D4801F0ADF808BD10B540F22551D7
:10144000594801F007FFB0B155480088C82802D3B9
:101450000020534908805448001D0088C1B25048FC
:1014600002880088401C4E4B18804C488154202133
:101470004D4801F0E6FE10BD10B592B00446FFF7EE
:10148000BFFEA9A16846226803F042FB03E04FF4C7
:10149000FA7000F09AFF55A16846FFF7CFFE0028CA
:1014A000F5D112B010BD70B5FEB004460D4605264C
:1014B0002B462246A2A14C4801F06BF8FFF7A0FE94
:1014C0002B462246A2A101A803F022FB04E0761ECF
:1014D0004FF4FA7000F079FF44A101A8FFF7AEFEC7
:1014E00008B1002EF3DA7EB070BD2DE9F041074659
:1014F0000E460024002580219D4803F010F8324656
:101500009CA19B4803F004FB9949384603F012F86C
:10151000044614B90020BDE8F081954803F026F890
:1015200045B22C448021924802F0F9FF207822280D
:1015300017D10025641C12E020785C2806D0607862
:10154000222803D120788A49485509E02078884923
:101550004855641C681C45B2632D00DB00E0EBE7D6
:1015600012E000250DE02078392806DC20783028AC
:1015700003DB20787E49485500E004E0681C45B252
:10158000641C0A2DEFDB00BF0021794A681C11544E
:1015900011467AA003F0ACFA7548BCE7740E00203F
:1015A0005E000020600000200044004025730D0A0A
:1015B0000000000041542B43495053454E443D2503
:1015C000640D0A003E000000257300004D51545484
:1015D000535542524543562C00000000000C014078
:1015E000302E2041540D0A00003801404F4B0000BE
:1015F00041540D0A00000000312E205253540D0AB0
:101600000000000041542B5253540D0A000000000A
:10161000322E41542B434950434C4F53450D0A0041
:10162000332E2043574D4F44450D0A0041542B4360
:10163000574D4F44453D310D0A000000342E2041E6
:10164000542B4357444843500D0A000041542B4348
:1016500057444843503D312C310D0A00352E20436C
:10166000574A41500D0A0000474F5420495000008E
:1016700041542B43574A41503D226E6F76612037CB
:10168000203547222C223837363534333231220D7B
:101690000A000000362E204D5154545553455243F4
:1016A00046470D0A0000000041542B4D515454553B
:1016B0005345524346473D302C312C22313431338F
:1016C000222C226C6F222C223636222C302C302CED
:1016D00022220D0A00000000372E204D5154545F85
:1016E000434F4E4E0D0A000041542B4D515454436C
:1016F0004F4E4E3D302C223139322E3136382E3479
:10170000332E313132222C313838332C300D0A004F
:10171000382E204553503832363620496E697420B1
:101720004F4B0D0A0000000041542B4D51545453AF
:1017300055423D302C222573222C300D0A0000002A
:10174000707562202573203A2025730D0A00000071
:1017500041542B4D5154545055423D302C22257349
:10176000222C222573222C302C300D0A0000000080
:101770003C0F0020222573223A000000CAFDD6B596
:101780003D25730D0A00000008B50121402001F03D
:101790003DFB0420ADF8000010208DF8030003206D
:1017A0008DF802006946FC4801F074F80220ADF89B
:1017B000000048208DF803006946F74801F06AF8F8
:1017C00008BD10B504462CB101220421F24801F0F5
:1017D00012F904E000220421EF4801F00CF910BDD9
:1017E00010B50221EC4801F0E8F810BD012000BF5F
:1017F000011EA0F10100FBD1704710B50120FFF7D9
:10180000E0FF10BD10B50020FFF7DBFF10BD10B5E5
:10181000FFF7BAFFFFF7F1FF10BD2DE9F0410646D3
:1018200000251CE00020DD4908704FF4E15400E081
:10183000641EFFF7D5FF08B9002CF9D114B90120B7
:10184000BDE8F08105E04FF4347000F09AFD3225D8
:1018500003E0FFF7C5FF0128F5D000BF6D1C322D56
:10186000E0D34FF4E15400E0641EFFF7B9FF012814
:1018700001D1002CF8D10CB90120E1E7C84C00E0FF
:10188000641EFFF7ADFF08B9002CF9D10CB9012097
:10189000D6E700F004FF40F28A28002546E0002742
:1018A0003BE0404600F06DFDFFF79AFF01281BD199
:1018B0004FF4E15400E0641EFFF792FF012801D1CC
:1018C000002CF8D10CB90120BAE7B44800784010D8
:1018D000B24908700846007840F0800008704FF464
:1018E000AF7800F0DCFE17E04FF4E15400E0641E36
:1018F000FFF776FF08B9002CF9D10CB901209FE75A
:10190000A64800784010A54908700846007808707D
:101910004FF4AF7800F0C3FE7F1C082FC1D39F485F
:101920000078705500209D4908706D1C082DB6D3B5
:10193000002085E710B59B480078012809D100F008
:10194000AEFE4FF4C07000F01CFD0020FFF739FF21
:1019500007E000F0A4FE802000F013FD0020FFF758
:1019600030FF00F09CFEFA2000F00BFD0120FFF795
:1019700028FF10BD10B5044600F091FE052000F0D0
:1019800024FD0020FFF71DFF00F089FE4FF4C0701A
:1019900000F0F7FC0120FFF714FF82480470007884
:1019A00000F010007F49087008460078102804D124
:1019B00001200870FFF7BEFF04E00020794908709D
:1019C000FFF7B8FF77480470007800F00100754910
:1019D0000870FFF7AFFF10BD10B5044671480470E2
:1019E000007800F001006F490870FFF7A3FF10BDF9
:1019F00070B5002413E06C48055D00260BE06948D3
:101A00000570007800F0010066490870FFF792FF4A
:101A10006D10701CC6B2082EF1DB601CC4B2042C21
:101A2000E9DB70BD10B504465E480470007800F034
:101A300004005C49087008460078042804D101209D
:101A40000870FFF777FF04E0002056490870FFF7A1
:101A500071FF54480470007800F00200514908708A
:101A600008460078022804D101200870FFF762FFC1
:101A700004E000204B490870FFF75CFF4948047000
:101A8000007800F0010047490870FFF753FF10BDD0
:101A90003EB504461120FFF76DFF012000F0B9FCB0
:101AA0002046FFF7BAFE08B101203EBD052000F038
:101AB000B0FC1120FFF75EFF012000F0AAFC684691
:101AC000FFF7ABFE08B10120EFE708222146684688
:101AD00002F061FD08B10120E7E70020E5E710B55D
:101AE00088B000200690079030A003F001F806A807
:101AF000FFF7CEFF0446DCB930A002F0F9FF9DF8F5
:101B00001F009DF81E109DF81D209DF81C30CDE98A
:101B10000132CDE903109DF81B0000909DF81A30AA
:101B20009DF819209DF8181029A002F0E1FF02E0AD
:101B300030A002F0DDFF08B010BD3EB504460D46F2
:101B400004F007041020FFF715FF0020FFF744FF03
:101B50002046FFF767FF022000F05BFC6846FFF7B6
:101B60005CFE022000F055FC1020FFF703FF002070
:101B7000FFF732FF2046FFF755FF022000F049FC37
:101B80002846FFF74AFE04222946684602F003FD74
:101B900008B101203EBD37E000180140620000207E
:101BA000401901006300002064000020B5CDC6B5D7
:101BB000BFA8B2E2CAD40D0A00000000B5CDC6B578
:101BC000BFA8BBF1C8A1B3C9B9A6A3A1000000007A
:101BD000696420636172643A25582025582025588D
:101BE0002025582025582025582025582025580DD7
:101BF0000A000000B5CDC6B5BFA8BBF1C8A1CAA7F1
:101C0000B0DCA3A10000000000203EBDFEB50546EB
:101C10000C46002605F08000802800D1012605F042
:101C200007050DB90120FEBD1020FFF7A3FE3046C9
:101C3000FFF7D2FE2078A749087060784870A07836
:101C40008870E078C870FFF7D3FE2846FFF7EAFEF9
:101C5000022000F0DEFB1020FFF78CFE0020FFF7D3
:101C6000BBFE2846FFF7DEFE022000F0D2FB6846EE
:101C7000FFF7D3FD04222146684602F08CFC08B130
:101C80000120D0E70020CEE70246012070472DE971
:101C9000F04106460C461546002706F080008028D5
:101CA00000D101271020FFF765FE287889490870C8
:101CB00068784870A8788870E878C870FFF798FE50
:101CC0003846FFF789FE20788249087060784870AE
:101CD000A0788870E078C870FFF78AFE3046FFF77A
:101CE000A1FE012000F095FB2046FFF796FD10B104
:101CF0000120BDE8F0810020FBE770B506460D46E7
:101D000014461020FFF736FE20787249087060787C
:101D10004870A0788870E078C870FFF769FE0020EE
:101D2000FFF75AFE3046FFF77DFE012000F071FB01
:101D30002846FFF772FD08B1012070BD0020FCE7C6
:101D40000EB51020FFF716FE0020FFF745FE00201D
:101D50006049087028204870012088701720C870DA
:101D6000FFF746FE0020FFF75DFE642000F051FB08
:101D70006846FFF752FD6846FFF78AFE0EBD10B5B4
:101D80001020FFF7F7FD0020FFF726FE0020514945
:101D9000087028204870012088701720C870FFF74D
:101DA00027FE0020FFF73EFE10BD0EB51020FFF706
:101DB000E1FD0020FFF710FE0020464908702820B2
:101DC0004870012088701720C870FFF711FE0020AE
:101DD000FFF728FE642000F01CFB6846FFF71DFD9E
:101DE0006846FFF755FE0EBD10B51020FFF7C2FD87
:101DF0000020FFF7F1FD00203649087028204870C8
:101E0000412088701F20C870FFF7F2FD0020FFF707
:101E100009FE10BD10B5044621460720FFF7F6FE67
:101E200008B1012010BD1020FFF7A4FD0020FFF72E
:101E3000D3FD002027490870282048704120887071
:101E40001F20C870FFF7D4FD0020FFF7EBFD002036
:101E5000E8E73EB504461020FFF78CFD20781D49C9
:101E6000087060784870A0788870E078C870FFF7D4
:101E7000BFFD0020FFF7B0FD0020164908702820A4
:101E80004870012088701720C870FFF7B1FD00204E
:101E9000FFF7C8FD012000F0BCFA6846FFF7BDFC63
:101EA00008B101203EBD0020FCE73EB5044668466F
:101EB000FFF7EEFD58B19DF8040020709DF8050075
:101EC00060709DF80600A0709DF80700E07000208B
:101ED0003EBD00006400002008B503208DF800001E
:101EE00000208DF801008DF8020001208DF803001C
:101EF000684600F006FC08BDF0B503460C461546E2
:101F0000642093FBF0F0C6B2642093FBF0F700FB73
:101F10001730C1B2132E02DD01F16400C1B20846D0
:101F2000CF1701EB977701EBA707BAB2072092FB17
:101F3000F0F700FB172082B25719601EDFF8D4C3F8
:101F40001CF80000384482B2CF1701EB9777BF101E
:101F5000A1EB87071FB9032C01DA501E82B20720BC
:101F600092FBF0F700FB1720C0B2F0BD0146CA1784
:101F700001EB92729210A1EB820292B9642091FB64
:101F8000F0F200FB121050B94FF4C87091FBF0F260
:101F900000FB121008B9012070470020FCE7012067
:101FA000FAE70020F8E770B500260024002502F0CB
:101FB000B3F90646D848B6FBF0F4D8480088A042EA
:101FC0003CD0D6490C8040F2B27510E02846FFF7AD
:101FD000CDFF40B1B4F5B77F02D3A4F5B77404E0E8
:101FE000681C85B206E0A4F26D14681C85B2B4F5D5
:101FF000B67FEBD800BFCA488580002516E0C849E7
:102000008888FFF7B3FF30B1012D04D11D2C01D317
:102010001D3C09E00CE0C348405DA04203D8C14824
:10202000405D241A00E003E0681C85B21C2CE6D257
:1020300000BF681CBA498871601CC871B648B6FBFD
:10204000F0F100FB11644FF46160B4FBF0F0B449AF
:1020500008704FF46160B4FBF0F100FB11403C21CB
:10206000B0FBF1F0AE4948704FF46160B4FBF0F1A1
:1020700000FB11403C21B0FBF1F201FB1200A8492A
:1020800088700B46DA7999799888FFF735FFA4496B
:102090000872002070BD2DE9F05F06460F4690469D
:1020A0009946DDE90AAB002440F2B270864203DBB8
:1020B00040F63300864202DD0120BDE8F09F40F289
:1020C000B2750AE02846FFF751FF10B19648044464
:1020D00001E096480444681C85B2B542F2DB781EE4
:1020E000C7B2002510E08F48405D40F2A32148436D
:1020F00004EBC0143046FFF739FF18B1012D01D1B0
:1021000085480444681C85B2BD42ECDBA8F101009F
:1021100040F2A321484304EBC014C9EB4910C0EBC3
:10212000092004EB0014CAEB0A1004EB80045C44A1
:1021300001214FF0C05000F076FE012002F07BF943
:10214000204602F0F2F802F023F90020B5E71CB5B2
:10215000002401214FF0C05000F065FE012002F084
:102160006AF9042002F08BF845F25001884240D011
:1021700002F050F8012000F0B6FD04E0601CC4B28B
:102180000A2000F022F9412000F015FD08B9FA2CD0
:10219000F4DBFA2C01DB01201CBD4FF4807000F051
:1021A000BEFD012000F0C1FD02F0F2F802F0F9F8E6
:1021B0000121084602F090F802F0EAF802F099F8DE
:1021C00047F6FF7002F0BEF802F0E2F81E201A2176
:1021D00010231D22CDE90010072140F2E770FFF720
:1021E0005AFF02F08FF845F25001042002F03BF84C
:1021F00007E002F0D6F80121084602F06DF802F07F
:10220000C7F8FFF769FEFFF7CEFE0020C4E70EB562
:10221000012002F0EBF808B1FFF7C5FE022002F042
:10222000E5F8A0B1022002F0F1F8FFF7BCFE3C484F
:1022300080783B4949783A4A1278CDE900210290EA
:102240003748C3798279818839A002F051FC052092
:1022500002F0DCF802F09CF80EBD2DE9F05F0646B6
:102260000F4690469946DDE90AAB002440F2B27071
:10227000864203DB40F63300864202DD0120BDE8E2
:10228000F09F40F2B2750AE02846FFF76FFE10B1EA
:102290002548044401E025480444681C85B2B54241
:1022A000F2DB781EC7B2002510E01E48405D40F208
:1022B000A321484304EBC0143046FFF757FE18B182
:1022C000012D01D114480444681C85B2BD42ECDBE9
:1022D000A8F1010040F2A321484304EBC014C9EB6C
:1022E0004910C0EB092004EB0014CAEB0A1004EB00
:1022F00080045C4401214FF0C05000F094FD0120A7
:1023000002F099F8204602F02BF802F041F8002084
:10231000B5E70000E8590008805101006A0000207C
:10232000A00F0020F45900080085E2018033E1018C
:10233000416C61726D2054696D653A25642D256488
:102340002D25642025643A25643A25640A0000009E
:1023500010B56FF0040000F01EFA344800683449EC
:10236000B0FBF1F0334908700846007800EB4001FB
:10237000C1EBC0104FF6FF7101EAC0002E49088082
:1023800010BD01462B4A12784A434FF0E0235A61B0
:1023900000229A611A46126942F001021A6100BFD6
:1023A0004FF0E022106900F001021AB100F480320F
:1023B000002AF5D04FF0E022126922F001024FF01E
:1023C000E0231A6100229A61704701461A4A128876
:1023D0004A434FF0E0235A6100229A611A4612697B
:1023E00042F001021A6100BF4FF0E022106900F0D4
:1023F00001021AB100F48032002AF5D04FF0E02239
:10240000126922F001024FF0E0231A6100229A6162
:10241000704710B5044602E00A20FFF7D6FF201EE1
:10242000A4F101018CB2F7D110BD0000140000200E
:1024300000127A006C0000206E00002000BF704780
:1024400000BF724A128802F04002002AF9D0C2B2DC
:102450006E4B1B1D1A80704710B586B004460121D3
:1024600044F2040000F0D2FC4FF40070ADF8140008
:1024700003208DF8160018208DF8170005A9644870
:1024800000F008FA4FF48060ADF8140004208DF8D5
:10249000170005A95E4800F0FDF925208DF8000021
:1024A00003208DF801008DF8020001208DF8030053
:1024B000684600F026F901940020ADF80800ADF858
:1024C0000A00ADF80C00ADF810000C20ADF80E00BD
:1024D00001A94E4800F041FD012240F225514B4830
:1024E00000F0D3FD0121494800F0C3FD06B010BD46
:1024F00010B548A002F0FCFA49494AA0FEF73DFD9C
:10250000474948A002F0F4FA00BF4021474800F0D4
:102510008BFE0128F9D110BD10B540F225513B4882
:1025200000F098FE10B3394800F014FEC4B24048E1
:10253000008800F40040C8B93D48008800F480409D
:1025400060B10A2C03D000203949088020E03848C7
:10255000008840F400403649088019E00D2C06D16F
:102560003348008840F480403149088010E030480A
:102570000088C0F30D002A490C542D480088401CE7
:102580002B49088008460088C72801DD0020088004
:1025900010BD0FB430B5CBB0054601AC50A80090CB
:1025A0004FF4947101A8009B4F9A02F0C5FA0020E5
:1025B00000900BE014F8011B284600F0C7FD00BF97
:1025C0004021284600F030FE0028F9D0207800286D
:1025D000F0D14BB030BC5DF814FB2DE9F04107465B
:1025E0000C46154600260DE014F8011B384600F095
:1025F000ADFD00BF4021384600F016FE0028F9D09E
:10260000701C86B2AE42EFDBBDE8F08100380140BD
:1026100000080140D2D1B7A2CBCDA3BA0D0A000069
:10262000AA0F002025730D0A00000000004800409A
:102630007400002008B5FF208DF8000003208DF8FD
:10264000010000208DF8020001208DF8030068468B
:1026500000F057F808BD10B500201D49086004209F
:1026600000F099F841F61F404FF0E021486100204A
:1026700088610720086110BD70474FF0E0200069B5
:1026800020F002004FF0E021086170474FF0E02099
:10269000006940F002004FF0E0210861704700201F
:1026A0004FF08041888470474FF08040808C7047A5
:1026B00010B5044602E00A20FFF787FE201EA4F1B1
:1026C0000104F8D110BD024800687047704700004F
:1026D000780000200648804706480047FEE7FEE7EE
:1026E000FEE7FEE7FEE7FEE7FEE7FEE7FEE7FEE7C2
:1026F0002F0300083101000831490143314A1160BC
:10270000704770B5002100230F22C47804B32D4C0C
:10271000246804F4E064C4F5E064210AC1F1040310
:10272000CA40447804FA03F1847814402143090133
:10273000254C0678A155047804F01F050124AC400F
:1027400005786D11AD0005F1E025C5F8004109E0FF
:10275000047804F01F050124AC401C4D0678761166
:1027600045F8264070BD1A4A0A400243154B1B1F0C
:102770001A60704739B1134A121D12680243114B97
:102780001B1D1A6006E00F4A121D126882430D4B92
:102790001B1D1A607047042808D14FF0E021096919
:1027A00041F004014FF0E022116107E04FF0E02119
:1027B000096921F004014FF0E02211617047000027
:1027C0000000FA050CED00E000E400E080E100E02C
:1027D00080FFFF1F10B50446CC48844208D1012178
:1027E000042000F02DFB0021042000F029FB46E02E
:1027F000C748844208D10121082000F021FB0021B4
:10280000082000F01DFB3AE0C248844208D10121B3
:10281000102000F015FB0021102000F011FB2EE02D
:10282000BD48844208D10121202000F009FB00218D
:10283000202000F005FB22E0B848844208D10121A5
:10284000402000F0FDFA0021402000F0F9FA16E0E7
:10285000B348844208D10121802000F0F1FA002120
:10286000802000F0EDFA0AE0AE48844207D1012151
:10287000801500F0E5FA0021A01500F0E1FA10BD86
:1028800010B50121084600F0DBFA0021012000F01C
:10289000D7FA10BD2DE9F0410246002500260020A0
:1028A00000230024002791F803C00CF00F0591F8D5
:1028B00003C00CF0100CBCF1000F03D091F802C063
:1028C0004CEA050591F800C0BCF1000F31D0146846
:1028D00000202BE04FF0010C0CFA00F3B1F800C01F
:1028E0000CEA03069E4220D183004FF00F0C0CFA35
:1028F00003F7BC4305FA03FC4CEA040491F803C057
:10290000BCF1280F06D14FF0010C0CFA00FCC2F804
:1029100014C00AE091F803C0BCF1480F05D14FF094
:10292000010C0CFA00FCC2F810C0401C0828D1D3DE
:102930001460B1F800C0BCF1FF0F34DD5468002012
:102940002EE000F1080C4FF0010808FA0CF3B1F882
:1029500000C00CEA03069E4221D183004FF00F0C09
:102960000CFA03F7BC4305FA03FC4CEA040491F8A3
:1029700003C0BCF1280F05D100F1080C08FA0CF8CF
:10298000C2F8148091F803C0BCF1480F07D100F1E0
:10299000080C4FF0010808FA0CF8C2F81080401C2F
:1029A0000828CED35460BDE8F0814FF6FF71018056
:1029B000022181700421C170704702460020936893
:1029C0000B400BB1012000E00020704701468868F1
:1029D00080B2704702460020D3680B400BB1012043
:1029E00000E0002070470146C86880B2704701616E
:1029F0007047416170470AB1016100E04161704771
:102A0000C16070474FF480320A4382618161826104
:102A100082698269704702460020434B18684FF66E
:102A20008073184040EA021008433F4B186070471B
:102A30003E49C8617047F0B50A46002300240021D2
:102A4000002500F00046B6F1004F02D1364EF16984
:102A500001E0354E7168C0F3034583B200F44016BF
:102A6000B6F5401F08D121F070612F4E766826F030
:102A700070662D4F7E6012E000F48016B6F5801F60
:102A800006D1032606FA05F4A14341F0706106E081
:102A9000460D360103FA06F6B14341F0706122B1EA
:102AA000460D360103FA06F6314300F00046B6F152
:102AB000004F02D11C4EF16101E01B4E7160F0BD70
:102AC00030B500228B071C0F0F2303FA04F2164BBC
:102AD00008338C1053F824309343134C08348D1072
:102AE00044F8253023468C1053F824308C07240FEB
:102AF00000FA04F423430C4C08348D1044F82530BC
:102B000030BD0A49DC310860704700000008014010
:102B1000000C014000100140001401400018014069
:102B2000001C014000200140000001400000204244
:102B3000DF48006840F00100DD4908600846406851
:102B4000DC490840DA49486008460068DA4908402C
:102B5000D74908600846006820F4802008600846CD
:102B6000406820F4FE0048604FF41F008860704702
:102B7000CF49096821F48031CD4A116011460968B6
:102B800021F480211160B0F5803F03D0B0F5802F93
:102B90000ED106E0C649096841F48031C44A11608B
:102BA00007E0C349096841F4A021C14A116000E06F
:102BB00000BF00BF704710B501460022002300206F
:102BC0004A11012A02D1BA4C236806E0022A02D136
:102BD000B74C236A01E0B64C636A01F01F0201247E
:102BE00094401C400CB1012000E0002010BD38B51D
:102BF000002000900024002500BF3120FFF7DBFFFC
:102C000005460098401C00900098B0F5A06F01D0D8
:102C1000002DF2D03120FFF7CEFF08B1012400E0F3
:102C20000024204638BD01460020A14A106820F04B
:102C3000F80040EAC10010607047A0490860704782
:102C4000024600209A4B586820F47C1042EA0103A7
:102C50001843974B5860704798490866704701467B
:102C60000020934A506820F00300084350607047EA
:102C70008F48406800F00C007047014600208C4AE5
:102C8000506820F0F0000843506070470146002073
:102C9000874A506820F4E06008435060704701465E
:102CA0000020834A506820F4605040EAC100506020
:102CB000704729B17E4A527A02437D4B5A7204E032
:102CC0007B4A527A82437A4B5A7270477B49D83199
:102CD0000860704701460020754A506820F4404063
:102CE0000843506070470021714A20321170704AC9
:102CF00082F82010012802D004280AD104E0012122
:102D00006B4A2032117005E00521694A20321170AA
:102D100000E000BF00BF7047694908607047644920
:102D2000096A0143624A1162704765494439086083
:102D3000704730B500210022002400235C4D6D68EF
:102D400005F00C0121B1042905D0082923D105E0A3
:102D50005C4D056022E05B4D05601FE0544D6D68E1
:102D600005F47012524D6D6805F48034022505EBB0
:102D700092421CB9544D554305600BE04C4D6D68B3
:102D800005F400351DB1504D5543056002E04D4D31
:102D90005543056002E04B4D056000BF00BF444D48
:102DA0006D6805F0F0010909484D6B5C0568DD4070
:102DB00045603F4D6D6805F4E061090A434D6B5C69
:102DC0004568DD4085603A4D6D6805F46051C90A7B
:102DD0003E4D6B5C4568DD40C560354D6D6805F462
:102DE0004041890B3A4D6B5CC568B5FBF3F5056155
:102DF00030BD29B12E4A526902432D4B5A6104E07D
:102E00002B4A526982432A4B5A61704729B1284A9A
:102E100092690243264B9A6104E0254A92698243F3
:102E2000234B9A61704729B1214AD2690243204B52
:102E3000DA6104E01E4AD26982431D4BDA617047B1
:102E400029B11B4AD2680243194BDA6004E0184AE0
:102E5000D2688243164BDA60704729B1144A12696E
:102E60000243134B1A6104E0114A12698243104B6A
:102E70001A61704712494039086070470F49C864A9
:102E800070470B49C87170470948406A40F080702C
:102E900007494862704701460020054A92680A4087
:102EA0000AB1012000E00020704701498872704794
:102EB000001002400000FFF8FFFFF6FE0000424253
:102EC0008004424200127A0000093D007C0000208C
:102ED0008C00002010B50446FB48844209D1012132
:102EE0008803FFF7ADFF00214FF48040FFF7A8FFF4
:102EF00032E0F648844209D101214804FFF7ADFFD2
:102F000000214FF40030FFF7A8FF25E0F04884428D
:102F100009D101218804FFF7A0FF00214FF4802090
:102F2000FFF79BFF18E0EB48844209D10121C80458
:102F3000FFF793FF00214FF40020FFF78EFF0BE017
:102F4000E548844208D101210805FFF786FF0021EA
:102F50004FF48010FFF781FF10BD2DE9F04786B0D8
:102F600005460E460024A24600BFA1460027B089B0
:102F700000B100BF2F462C8A4CF6FF700440F08849
:102F800004432C82AC894EF6F3100440B08831899A
:102F90000843718908430443AC81AC8A4FF6FF4073
:102FA0000440B0890443AC8201A8FFF7C2FEC648C2
:102FB000874202D1DDF810A001E0DDF80CA0A8895D
:102FC00000F4004040B10AEBCA0000EB0A1031687F
:102FD0004900B0FBF1F807E00AEBCA0000EB0A1069
:102FE00031688900B0FBF1F86420B8FBF0F004010F
:102FF0002009642101FB1089A88900F4004040B138
:10300000322000EBC900B0FBF1F000F007000443F0
:1030100008E0322000EB09106421B0FBF1F000F071
:103020000F0004432C8106B0BDE8F0874FF4165121
:10303000016000218180C18001810C21418100213A
:103040008181704710B502460020108A4FF2FF03BD
:1030500018400B884C8823438C882343CC88234317
:103060001843108210BD0021018041808180C18001
:10307000704721B1828942F40052828104E0828942
:103080004DF6FF731A4082817047F0B50346002465
:1030900000260025002040F66A17B94200D100BF83
:1030A0001846C1F3421401F01F06012707FA06F57E
:1030B000012C01D10C3004E0022C01D1103000E0D1
:1030C00014301AB107682F43076002E00768AF4366
:1030D0000760F0BD1AB1838A0B43838202E0838AC2
:1030E0008B4383827047028A4FF6F0731A40028244
:1030F000028A0A430282704782894FF2FF731A40A4
:10310000828182890A438281704721B1828942F09B
:103110000202828104E082894FF6FD731A408281A7
:103120007047028A4FF6DF731A400282028A0A430E
:103130000282704721B1028A42F48042028204E096
:10314000028A4BF6FF731A4002827047C1F30802ED
:103150008280704701468888C0F3080070478189E3
:1031600041F0010181817047028BD2B20283028B50
:1031700042EA012202837047028B02F47F420283FB
:10318000028B0A430283704721B1828A42F02002F7
:10319000828204E0828A4FF6DF731A40828270478F
:1031A00021B1828A42F01002828204E0828A4FF6C4
:1031B000EF731A408282704721B1828A42F008027E
:1031C000828204E0828A4FF6F7731A408282704747
:1031D00021B1828942F40042828103E08289C2F3F4
:1031E0000E028281704721B1828A42F4006282829B
:1031F00004E0828A4FF2FF731A4082827047828A0B
:103200004FF6FB731A408282828A0A438282704799
:1032100021B1828A42F00202828204E0828A4FF661
:10322000FD731A408282704702460020B1F5007F8C
:1032300000D100BF13880B400BB1012000E000203B
:10324000704701F40072B2F5007F00D100BFCA439D
:103250000280704770B5024600240023002500203C
:1032600040F66A16B14200D100BFC1F3421501F029
:103270001F03012606FA03F3012D02D1968933407C
:1032800006E0022D02D1168A334001E0968A3340CF
:103290000C12012606FA04F41688344013B10CB15E
:1032A000012000E0002070BD10B50022002340F690
:1032B0006A14A14200D100BF0A1201249440A3B2B3
:1032C000DC43048010BD0000003801400044004091
:1032D00000480040004C004000500040002044499D
:1032E0000860091D0860091D0860091D0860414843
:1032F0003F4914310860704700213D498279002A16
:103300003AD00A46126803689A430B461A600A1DAF
:10331000126803689A430B1D1A60027911440A6807
:1033200003681A430A60324A0832126803689A43F3
:103330002F4B08331A601A1D126803689A432C4BEE
:103340000C331A604279102A0ED11A1F12680368D2
:103350001A43274B08331A601A1D126803681A4370
:10336000234B0C331A600DE02149427911440A685D
:1033700003681A430A6005E0027911440A68036889
:103380009A430A6070470021016001710C2141716C
:103390000021817170471649103109680143144AB0
:1033A00010321160704701460020114A1432126831
:1033B0000A400AB1012000E0002070470C49143196
:1033C00008607047014600200022094B1B6803EA91
:1033D0000102074B14331B680B4013B10AB10120E3
:1033E00000E0002070470249143108607047000077
:1033F00000040140FFFF0F0010B50446FE48844260
:1034000008D10121C014FFF71BFD0021E014FFF7D4
:1034100017FDC4E0B4F1804F08D101210846FFF741
:103420001CFD00210120FFF718FDB8E0F34884429D
:1034300008D101210220FFF710FD00210220FFF733
:103440000CFDACE0EE48844208D101210420FFF7D6
:1034500004FD00210420FFF700FDA0E0E9488442BC
:1034600008D101210820FFF7F8FC00210820FFF710
:10347000F4FC94E0E448844208D101211020FFF7D5
:10348000ECFC00211020FFF7E8FC88E0DF488442D4
:1034900008D101212020FFF7E0FC00212020FFF7C8
:1034A000DCFC7CE0DA48844208D101214014FFF7BB
:1034B000C7FC00216014FFF7C3FC70E0D5488442CC
:1034C00009D10121C804FFF7BBFC00214FF4002003
:1034D000FFF7B6FC63E0D048844209D1012108051A
:1034E000FFF7AEFC00214FF48010FFF7A9FC56E077
:1034F000CA48844209D101214805FFF7A1FC0021F7
:103500004FF40010FFF79CFC49E0C548844208D105
:1035100001214020FFF7A1FC00214020FFF79DFC86
:103520003DE0C048844208D101218020FFF795FC8E
:1035300000218020FFF791FC31E0BB48844208D194
:1035400001218015FFF789FC0021A015FFF785FCFC
:1035500025E0B648844209D101210804FFF770FC38
:1035600000214FF48030FFF76BFC18E0B048844234
:1035700009D101214804FFF763FC00214FF400301A
:10358000FFF75EFC0BE0AB48844208D101218804C0
:10359000FFF756FC00214FF48020FFF751FC10BDCF
:1035A00000220288944B98420ED0994B98420BD03F
:1035B000B0F1804F08D0914B984205D0904B984283
:1035C00002D0904B984204D14FF68F731A404B882B
:1035D0001A438D4B984207D08C4B984204D04FF63B
:1035E000FF431A40CB881A4302808B8883850B885F
:1035F0000385814B98420BD0854B984208D08B4B6A
:10360000984205D08A4B984202D08A4B984201D109
:103610000B7A038601238382704770B50024002251
:103620000023058C4FF6FE7635400584028C838896
:10363000048B4FF68F752C40B51E2C400D882C4303
:10364000751E2A400D892A434D882A436A4DA84297
:103650000BD06F4DA84208D0744DA84205D0744DD0
:10366000A84202D0734DA84213D14FF6F7752A40F5
:103670004D892A434FF6FB752A408D882A434FF621
:10368000FF652B404FF6FF552B408D892B43CD898D
:103690002B4383800483CD888586028470BD70B5FA
:1036A000002400220023058C4FF6EF763540058478
:1036B000028C8388048B48F6FF752C404FF6FF453B
:1036C0002C400D884FF6FF7606EA05252C434FF671
:1036D000DF752A400D8906EA05152A434D8806EA5A
:1036E00005152A43444DA84202D0494DA8421DD198
:1036F0004FF67F752A404D894FF6FF7606EA05158D
:103700002A434FF6BF752A408D8806EA05152A43DD
:103710004FF6FF352B404FF2FF752B408D8906EA9F
:1037200085052B43CD8906EA85052B4383800483D9
:10373000CD880587028470BD70B500240022002367
:10374000058C4FF6FF6635400584028C8388848B98
:103750004FF68F752C404FF6FC752C400D882C438E
:103760004FF6FF552A400D894FF6FF7606EA0525EC
:103770002A434D8806EA05252A431F4DA84202D058
:10378000234DA8421DD14FF2FF752A404D894FF6B7
:10379000FF7606EA05252A434FF6FF352A408D8835
:1037A00006EA05252A434EF6FF752B404DF6FF75B8
:1037B0002B408D8906EA05152B43CD8906EA0515B0
:1037C0002B4383808483CD888587028470BD70B548
:1037D000002200230024058C4EF6FF763540058438
:1037E000038C8488828B48F6FF752A404FF6FF458C
:1037F0002A400D8820E00000002C01400004004019
:1038000000080040000C0040001000400014004080
:1038100000340140004C0140005001400054014080
:1038200000180040001C0040002000400040014003
:1038300000440140004801404FF6FF7606EA0525A6
:103840002A434DF6FF752B400D8906EA05352B43BB
:103850004D8806EA05352B43FA4DA84202D0FA4DB1
:10386000A84208D14BF6FF752C408D894FF6FF76A4
:1038700006EA85152C4384808283CD88A0F84050C9
:10388000038470BD828B4FF2FF331A408283828B98
:103890004FF6FF7303EA01231A4382837047F0B5A2
:1038A0000C461546002200210026078C4EF6FF7CB0
:1038B00007EA0C070784828B018C4FF6FF7707EA33
:1038C000043640F6FF473A404FF6FF7707EA0527F0
:1038D0003A434FF6FF7707EA03373A43D94FB842E6
:1038E0000ED0D94FB8420BD0B0F1804F08D0D74F8F
:1038F000B84205D0D64FB84202D0D64FB84206D112
:103900004DF6FF77394046F48057394305E047F6D6
:10391000FF57394044F48057394382830184F0BD16
:10392000828B4FF6F3731A408283828B0A43828321
:103930007047F0B50C461546002200210026078C82
:103940004FF6FF6C07EA0C070784828B018C4FF659
:10395000FF7707EA04264FF60C773A404FF6FF77D9
:1039600007EA03172F433A43B64FB8420ED0B64F7B
:10397000B8420BD0B0F1804F08D0B44FB84205D058
:10398000B34FB84202D0B34FB84206D14FF6FF57FB
:10399000394046F48077394305E04FF2FF5739400C
:1039A00044F48077394382830184F0BD028B4FF267
:1039B000FF331A400283028B4FF6FF7303EA0123A1
:1039C0001A4302837047F0B50C46154600220021C9
:1039D0000026078C4FF6EF7C07EA0C070784028B62
:1039E000018C4FF6FF7707EA041640F6FF473A408E
:1039F0004FF6FF7707EA03373A434FF6FF7707EAB8
:103A000005273A438F4FB8420ED08F4FB8420BD0A4
:103A1000B0F1804F08D08D4FB84205D08C4FB842DE
:103A200002D08C4FB84206D14FF6DF77394046F0CE
:103A30001007394305E04FF65F77394044F010072F
:103A4000394302830184F0BD028B4FF6F3731A40B1
:103A50000283028B0A4302837047F0B50C46154679
:103A600000220021068C4FF6FE773E400684028B32
:103A7000018C4FF60C7632407E1C06EA03162E436C
:103A80003243704EB0420ED06F4EB0420BD0B0F108
:103A9000804F08D06D4EB04205D06D4EB04202D07E
:103AA0006C4EB04206D14FF6FD76314044F001062F
:103AB000314305E04FF6F576314044F001063143DD
:103AC00002830184F0BD70B505460C465D48854211
:103AD0000ED05D4885420BD0B5F1804F08D05B48D1
:103AE000854205D05A48854202D05A48854200D1C5
:103AF00000E000BF208850B92389A2886188284649
:103B0000FFF7ABFFE1882846FFF79EFF25E02088FE
:103B100004280AD12389A28861882846FFF753FF29
:103B2000E1882846FFF742FF17E0208808280AD1DD
:103B30002389A28861882846FFF7FBFEE188284692
:103B4000FFF7EEFE09E02389A28861882846FFF787
:103B5000A6FEE1882846FFF795FE70BD2DE9F041ED
:103B600005460C4600260127608808B9022600E0B9
:103B70000026A088012801D1022700E00127208823
:103B8000A0B92389A28861882846FFF766FFE188EB
:103B90002846FFF759FF23893A4631462846FFF762
:103BA00012FFE1882846FFF701FF13E02389A2886E
:103BB00061882846FFF707FFE1882846FFF7F6FEF1
:103BC00023893A4631462846FFF747FFE1882846D1
:103BD000FFF73AFFBDE8F0810A884B881A438B88CB
:103BE0001A43CB881A430B891A434B891A438B8992
:103BF0001A43A0F8442070474FF6FF7181800021DE
:103C00000180C180418001727047002101804180A4
:103C10008180C180018141818181C1817047002102
:103C200001804180012181800021C1800181704794
:103C30000021018041808180C18001814181818199
:103C400070470000002C0140003401400004004097
:103C500000080040000C004021B1028842F001023F
:103C6000028004E002884FF6FE731A40028070471B
:103C700031B1B0F8442042F40042A0F8442005E0FD
:103C8000B0F84420C2F30E02A0F8442070471AB1E5
:103C900083890B43838102E083898B43838170474F
:103CA0008182704741EA0203A0F8483070471AB198
:103CB00083890B43838102E083898B43838170472F
:103CC00001894FF6F8721140018170470A460021C0
:103CD00001894FF68F73194011430181704730B548
:103CE00004460D4629462046FFF7F0FF208940F0A4
:103CF0000700208130BD2DE9F04104460D461646EF
:103D00001F46602D06D13B46012231462046FFF773
:103D10005AFE05E03B46012231462046FFF79DFE54
:103D200029462046FFF7D2FF208940F00700208176
:103D3000BDE8F08130B50C4600210189C9B24FF6CB
:103D4000FF7505EA0325154325432943018130BD4D
:103D50002DE9F04105460E46174698460024434695
:103D60003A4631462846FFF7E5FF2C894FF6F870B2
:103D7000044044F007044FF68F70044044F0700490
:103D80002C81BDE8F081F0B504460D4616461F466D
:103D90003B46324629462046FFF7CCFF208940F4B7
:103DA00080402081F0BD0185828270470A46002153
:103DB00001884FF68F731940114301807047F0B5A9
:103DC0000C4615461E460021002200230189028B65
:103DD000038C4FF6F877394021434FF6FC473A40C1
:103DE00040F201173A434FF6DD773B404FF6FF773D
:103DF00007EA06172F433B43018102830384F0BD8A
:103E00000A460021018B4FF68F731940114301833D
:103E100070470A460021018B48F6FF7319404FF6A0
:103E2000FF7303EA02231943018370470A46002106
:103E3000818B4FF68F7319401143818370470A4677
:103E40000021818B48F6FF7319404FF6FF7303EA98
:103E5000022319438183704721B1028842F0800216
:103E6000028004E002884FF67F731A400280704798
:103E700021B1828842F00402828004E082884FF6F9
:103E8000FB731A408280704721B1828842F0080299
:103E9000828004E082884FF6F7731A408280704770
:103EA00021B1828842F00102828004E082884FF6CC
:103EB000FE731A40828070470A460021018B4FF63C
:103EC000F77319401143018370470A460021018BA3
:103ED0004FF2FF7319404FF6FF7303EA02231943B1
:103EE000018370470A460021818B4FF6F773194012
:103EF0001143818370470A460021818B4FF2FF7383
:103F000019404FF6FF7303EA022319438183704778
:103F10000A460021018B4FF6FB73194011430183C0
:103F200070470A460021018B4FF6FF3319404FF6C8
:103F3000FF7303EA02231943018370470A460021F5
:103F4000818B4FF6FB7319401143818370470A46FA
:103F50000021818B4FF6FF3319404FF6FF7303EAC0
:103F600002231943818370470A460021018B4FF6D3
:103F70007F7319401143018370470A460021018B6A
:103F8000C1F30E014FF6FF7303EA022319430183C5
:103F900070470A460021818B4FF67F731940114309
:103FA000818370470A460021818BC1F30E014FF6D1
:103FB000FF7303EA02231943818370470A460021F5
:103FC000018C4FF6FD7319401143018470470A4676
:103FD0000021018C4FF6F77319401143018470479B
:103FE0000A460021018C4FF6DF7319404FF6FF732C
:103FF00003EA02131943018470470A460021018C29
:104000004FF67F7319404FF6FF7303EA021319430B
:10401000018470470A460021018C4FF6FF53194076
:104020004FF6FF7303EA02231943018470470A46DF
:104030000021018C4FF2FF7319404FF6FF7303EA22
:1040400002231943018470470A460021018C4DF672
:10405000FF7319404FF6FF7303EA023319430184DB
:10406000704730B5002301248C40A3B2048C9C43DC
:104070000484048C02FA01F5ADB22C43048430BDF3
:1040800030B5002304248C40A3B2048C9C430484E8
:10409000048C02FA01F5ADB22C43048430BD70B536
:1040A0000346002000241846183001258D40ACB28C
:1040B0001D8CA5431D8409B1082909D100EB6100BD
:1040C000056825F0700505600568154305600EE07C
:1040D0000D1FC5F34E052844056825F4E04505602D
:1040E00005684FF6FF7606EA02263543056070BD87
:1040F00021B1028842F00202028004E002884FF6F9
:10410000FD731A400280704721B1028842F0040218
:10411000028004E002884FF6FB731A400280704769
:1041200021B1828842F08002828004E082884FF6CA
:104130007F731A408280704702884FF6F7731A40E7
:10414000028002880A430280704782884FF68F738C
:104150001A40828082880A438280704702894FF623
:10416000F8731A40028102890A430281704702896A
:104170004FF67F731A40028102890A430281704719
:1041800081847047818570478186704701877047B9
:1041900081877047A0F84010704702884FF6FF43B0
:1041A0001A40028002880A43028070470146888EC6
:1041B00070470146088F70470146888F7047014657
:1041C000B1F8400070470146888C70470146088D61
:1041D000704702460020138A0B400BB1012000E01B
:1041E00000207047CA430282704730B50246002063
:1041F00000230024158A05EA0103958905EA0104D4
:1042000013B10CB1012000E0002030BDCA4302828E
:104210007047000010B50120FEF72CFE0020FEF7CD
:1042200029FE10BD2A49086070472949091F086006
:104230007047274984310860704701460020254AAD
:1042400010884FF67F4210400843224A1080704782
:10425000014600201F4A10884FF680721040084324
:104260001C4A1080704708B500220092194A2C3A67
:104270000092009A02440092009A116008BD08B5AD
:1042800001460020009013482C3800900098084404
:1042900000900098008808BD0D489C300068C0B2AE
:1042A00070470C480830008840F001000949083187
:1042B000088070470648A0300068C0B270470548C3
:1042C0000830008840F00200024908310880704739
:1042D00004860D422C6C004029B1504A12880243DA
:1042E0004E4B1A8004E04D4A128882434B4B1A8091
:1042F00070474A48001D008840F010004749091DDA
:10430000088070474548001D00884FF6EF7108404F
:104310004249091D08807047002140481C3001882F
:10432000001F008841EA0040704700B50246FFF7D1
:10433000E0FF100C394918310880091D0A80FFF789
:10434000E1FF00BD00B50246FFF7D3FFC2F3034013
:10435000324908310880091D0A80FFF7D3FF00BDEC
:1043600000B50246FFF7C5FF100C2C49203108802C
:10437000091D0A80FFF7C6FF00BD00202749103144
:1043800009880907080B2549143109880843704733
:1043900000BF2248001D008800F020000028F8D04F
:1043A00070471E48001D00884FF6F77108401B49F2
:1043B000091D088000BF1948001D008800F0080092
:1043C0000028F8D0704701460020144A121D1288B8
:1043D0000A400AB1012000E0002070470F49091D82
:1043E000098881430D4A121D118070470146002043
:1043F0000A4A121D12880A40D0B2084A12880A409E
:1044000012B108B1012000E0002070470349091DE6
:1044100009888143014A121D11807047002800401D
:1044200010B501210807FEF718FD00214FF080505C
:10443000FEF713FD10BD2A4908627047284908613C
:10444000704701460020274A106820F0E00008432A
:10445000106070472249A0310860704710B50246CD
:104460000020204B186820F00300104318601E4BFA
:104470001B6843F004031C4C2360012901D130BFA9
:1044800000E020BF184B1B6823F00403164C236088
:1044900010BD1448006840F0040012490860084646
:1044A000006840F0020008600F48006840F0040017
:1044B0000D49086000BF00BF30BF704701460020B3
:1044C000084A52680A400AB1012000E00020704703
:1044D0000449096841EA8001024A116070470000FE
:1044E00000000E420070004010ED00E040EA0103C1
:1044F0009B0703D009E008C9121F08C0042AFAD29A
:1045000003E011F8013B00F8013B521EF9D270475D
:10451000D2B201E000F8012B491EFBD27047002205
:10452000F6E710B513460A4604461946FFF7F0FFB2
:10453000204610BD30B505462A460B4612F8010B41
:1045400013F8014B08B1A042F8D01CB1002802D0EA
:104550006D1CF1E7284630BDCAB2401E10F8011F9D
:104560008A4202D00029F9D100207047421C10F87D
:10457000011B0029FBD1801A704710B5002200E012
:10458000521C835C8C5CA34201D1002BF8D1D8B2C1
:10459000E1B2401A10BD30B504460020034600E0E9
:1045A0005B1C934203D2E05CCD5C401BF8D030BD75
:1045B00030B50B46014600202022012409E021FAF3
:1045C00002F59D4205D303FA02F5491B04FA02F5F0
:1045D0002844151EA2F10102F1DC30BD2DE9F05F87
:1045E0000546002092469B46884606468146402462
:1045F0001BE0284641464746224600F0FAF953465A
:104600005A46C01A914110D311461846224600F06E
:10461000E1F92D1A67EB01084F46224601200021DF
:1046200000F0D8F917EB00094E41201EA4F1010457
:10463000DFDC484631462A464346BDE8F09F2DE977
:10464000FE4F804681EA0300C00F0C46009021F027
:10465000004123F00045B8EB0200A94105D24046D5
:10466000214690461C460B46024623F0004010436C
:1046700047D0270DC7F30A00C3F30A510290401A2E
:10468000019040286BDAC3F3130040F4801B0098BC
:10469000924620B10023D2EB030A63EB0B0B019887
:1046A0005946C0F14002504600F094F906460D46C6
:1046B00050465946019A00F0ACF910EB08006141F0
:1046C000002487EA115284EAE7731A4340D0009A23
:1046D00062B3019A012A4FEA075215DC001B61EB15
:1046E00002014FF0004202EA0752CDE90042001CED
:1046F00041F5801132462B4600F0ACF903B0BDE81D
:10470000F08F40462146F9E7001B61EB0201001CD7
:1047100041F5801300185B412018A2F5001747EB04
:10472000030140EAD570B6196D4111E06D084FEAFA
:10473000360645EAC0754FEA0752001B61EB0201DD
:10474000001C41F5801149084FEA30000019514121
:1047500032462B4603B0BDE8F04F00F06CB900982C
:10476000012240000023D0EB020263EBE0730098CB
:1047700021464FEAE074B8EB000061EB0401E9E781
:1047800083F000435BE781F0004158E72DE9FE4FDD
:1047900081EA030404F0004421F0004100944FF04A
:1047A000000B23F0004350EA01045ED052EA0304F8
:1047B0005BD0C3F30A54C1F30A552C44A4F2F3347A
:1047C0000194A0FB0254C1F3130141F48011C3F31F
:1047D000130343F4801301FB024400FB034E840ADD
:1047E000970A44EA815447EA8357A4FB0768029575
:1047F0008D0A05FB07854FEA932C04FB0C54270513
:10480000029D4FEA065847EA1637B5EB08056EEBEE
:10481000070C870E920E47EA811742EA8312A7FB24
:104820000201B6EB0B0164EB00042B0D43EA0C33E1
:104830005E1844EB1C50DA465146E7FB0201C5F313
:1048400013044FEA0B3343EA14534FEA0432019C3A
:1048500043EA0603A4F10C040294009CCDE900B4E1
:1048600000F0F8F803B0BDE8F08F00200146F9E74A
:104870002DE9F04D81EA030404F0004B21F00045DE
:1048800014464FF0000A23F0004150EA050220D000
:1048900054EA01021DD0C5F30A570246C5F31303BB
:1048A000C1F31300C1F30A5640F4801543F480139A
:1048B000A7EB0608101BD64608F2FD3873EB05007F
:1048C00002D308F1010801E092185B41B8F1000F32
:1048D00003DA00200146BDE8F08D00204FF480117E
:1048E000064684460EE0171B73EB050705D3121B23
:1048F00063EB050306434CEA010C49084FEA30001C
:1049000092185B4150EA0107EDD152EA030012D040
:1049100082EA040083EA0501084305D0101BAB417D
:1049200006D20122002306E000224FF0004302E0FD
:104930006FF0010253101AEB06004CEB085110EB1C
:104940000A0041EB0B01BDE8F04D00F074B8C1F373
:104950000A52C1F3130140F2FF3341F480119A422D
:1049600002DA00200146704740F233439A42A2F235
:10497000334202DC524200F03CB800F02BB8000099
:1049800030B5041E71F1000404DB4FF000444042D6
:1049900064EB0101141E73F1000405DB1C464FF0AB
:1049A0000043524263EB0403994208BF904230BD7A
:1049B000064C074D06E0E06840F0010394E807006C
:1049C00098471034AC42F6D3FBF7B6FB505B0008B7
:1049D000705B0008202A04DB203A00FA02F1002074
:1049E00070479140C2F1200320FA03F3194390402D
:1049F0007047202A04DB203A21FA02F00021704798
:104A000021FA02F3D040C2F1200291400843194636
:104A10007047202A06DBCB17203A41FA02F043EA1E
:104A2000E07306E041FA02F3D040C2F12002914067
:104A300008431946704710B5141E73F1000408DAD4
:104A4000401C41F1000192185B411A4301D120F052
:104A5000010010BD2DE9F04D92469B4611B1B1FA0F
:104A600081F202E0B0FA80F220329046FFF7B2FF06
:104A700004460F4640EA0A0041EA0B0153465A46F3
:104A8000084313D0114653EA010019D0C8F140027F
:104A90005046FFF7AEFF05460E4650465946424681
:104AA000FFF798FF084305D0012004E0204639466F
:104AB000BDE8F08D0020054346EAE0762C433743FD
:104AC0000A986305E40AA0EB08000022FD0A44EA04
:104AD00047540A3002D500200146E9E701051019C4
:104AE0006941DDE9084500196941BDE8F04DA2E7DB
:104AF0000FB4054B10B503A9044A029800F016F94B
:104B000010BC5DF814FB0000412400087000002078
:104B10000FB4084B10B504A902AA039800F006F9D7
:104B2000044602A9002000F0D4FE204610BC5DF827
:104B300014FB0000D35800087CB5044600201D4635
:104B4000164600290BD0491ECDE90041044B6A46A8
:104B50002946304600F0F2FA009A002111707CBD1F
:104B6000BD58000837B514460846064B6A4621462C
:104B700000F0E4FA04466946002000F0AFFE20464B
:104B80003EBD0000DD58000802E008C8121F08C141
:104B9000002AFAD170477047002001E001C1121FBE
:104BA000002AFBD1704700002DE9FF5F82B0002191
:104BB000DDE90430020DDDF840B0034318D044F6BF
:104BC0001050A2F2FF3242431514119801281FD051
:104BD000A5EB0B00401C5FEA000A4FF000064E4FA9
:104BE000DFF83891B046504615D5CAF1000413E0FD
:104BF000119801244AA3012801D16FEA0B01029800
:104C0000119AC0E90031C0E9024206B0BDE8F09F48
:104C1000CBF10000DFE704460021404A491842EB8F
:104C20000450CDE9001012E0E00707D032463B46C1
:104C300040464946FFF7AAFD8046894632463B4634
:104C400010461946FFF7A2FD06460F466410002CD9
:104C5000EAD1DDE90401DDE90023BAF1000F06DA4B
:104C6000FFF794FD42464B46FFF790FD05E0FFF746
:104C7000FFFD42464B46FFF7FBFD04460E46002271
:104C8000284BFFF77DFE03D84FF0FF30014607E0C9
:104C90000022254B20463146FFF7D1FCFFF757FE97
:104CA000102409E0002C0ADB0A220023FFF796FCFF
:104CB000039B30321A55641E50EA0102F2D1641C83
:104CC000039AC4F111031444119A012A03D001225A
:104CD00008430DD10AE0084304D000204FF0110B27
:104CE000119072E7A3EB0B056D1E0DE05B4504DD33
:104CF0004FF0000205F1010504E003DA4FF0000275
:104D0000A5F10105002AECD002981199C0E9023101
:104D1000C0E9004579E70000000014400000F03FC2
:104D2000300000000000F0430000E03F2DE9FF4F9D
:104D30008DB00F460546002606E025280BD0DDE99C
:104D40000F1290476D1C761C28780028F5D111B001
:104D50003046BDE8F08F0024A246A1460122EC496E
:104D600000E0044315F8013F203B02FA03F008423B
:104D7000F7D128782A2810D06FF02F022878A0F1D8
:104D80003001092914D80AEB8A0102EB410144F0F1
:104D9000020400EB010A6D1CF0E701CF5FEA000A94
:104DA00003D544F40054CAF1000A44F002046D1C17
:104DB00028782E2817D115F8010F44F004042A286A
:104DC0000ED06FF02F022878A0F1300109290AD8FF
:104DD00009EB890102EB410100EB01096D1CF2E7CF
:104DE00057F8049B6D1C28786C280FD006DC4C28E3
:104DF00017D068280DD06A2814D104E0742810D088
:104E00007A280FD10DE044F400140AE044F4801431
:104E100001E044F440146978814202D104F5801421
:104E20006D1C6D1C2A786E2A1FD00CDC632A31D0D1
:104E300004DC002A8BD0582A11D1A3E0642A68D060
:104E4000692A0CD165E0732A2ED004DC6F2A73D056
:104E5000702A04D19BE0752A6FD0782A6ED0104654
:104E6000DDE90F129047761C50E1C4F3025002288E
:104E700006D0032809D0042801CF09D0066045E1F7
:104E800001CFF117C0E9006140E101CF06803DE1AB
:104E900006703BE117F8040B8DF8000000208DF838
:104EA0000100EB46012003E057F804BB4FF0FF3050
:104EB00061074FF0000102D40DE008F101018846BE
:104EC00049450FDA8045F8DB1BF808100029F4D1BA
:104ED00008E008F1010188468142FADB1BF808105E
:104EE0000029F6D1DDE90F23AAEB0800814621460F
:104EF00000F0B6FC304400EB080604E0DDE90F12D8
:104F00001BF8010B9047B8F10108F7D2214648463B
:104F1000F7E00A21C4F302534FF0000B0891022B73
:104F200004D001CFC117032B09D00AE0FF1D27F0E1
:104F30000707F7E8020108E032E01FE020E000B2D6
:104F4000C117042B01D140B2C117031E71F1000338
:104F500007DA4FF0000CD0EB0C006CEB01012D23B5
:104F600002E0230504D52B238DF82430012303E030
:104F7000E30701D02023F7E7984658E00A2110E024
:104F800010210EE010204FF0000B08900CE01021D3
:104F90004FF0000B44F004044FF00809089103E0BF
:104FA00008214FF0000B0891C4F30253022B04D0E8
:104FB00001CF0021032B06D006E0FF1D27F00707D5
:104FC000F7E8020103E080B2042B00D1C0B24FF039
:104FD000000823072BD5702A07D0DDF820C08CF0FD
:104FE000100C5CEA0B0C05D00EE040238DF8243049
:104FF000012308E050EA010306D030238DF8243065
:105000008DF8252002239846DDF820C08CF0080C8E
:105010005CEA0B0C0BD150EA010301D1630706D502
:1050200030238DF824304FF00108A9F10109582AE6
:1050300004D038A20B9208AA0A920BE03AA2F9E730
:105040005B46089AFFF7CAFA0B9B9B5C0A9A521EB2
:105050000A92137050EA0102F2D10A98ADEB0000F7
:1050600000F1200B600702D524F4803401E04FF0FA
:105070000109D94502DDA9EB0B0000E0002000EB9F
:105080000B0141440890AAEB010AE00306D4DDE9D4
:105090000F232146504600F0E3FB06444FF0000981
:1050A00008E009A911F80900DDE90F12904709F19C
:1050B0000109761CC145F4DBE0030CD5DDE90F23C3
:1050C0002146504600F0CCFB064404E0DDE90F1217
:1050D00030209047761C0899481E08900029F5DC7E
:1050E00008E00A980A990078491C0A91DDE90F1234
:1050F0009047761CBBF10001ABF1010BF1DC2146BE
:105100005046DDE90F2300F087FB06446D1C1BE6CB
:10511000092801003031323334353637383961628D
:105120006364656600000000303132333435363751
:105130003839414243444546000000002DE9FF4F05
:1051400095B09B468946064600250FE2252877D173
:1051500000242746F84A0121059400E0044316F88C
:10516000013F203B01FA03F01042F7D130782A28A2
:1051700011D06FF02F033078A0F13002092A16D831
:10518000059A44F0020402EB820203EB420210444F
:10519000761C0590EFE759F8042B0592002A03DAF4
:1051A000504244F40054059044F00204761C3078D8
:1051B0002E2816D116F8010F44F004042A280DD029
:1051C0006FF02F023078A0F13003092B09D807EBDC
:1051D000870302EB4303C718761CF3E759F8047BF7
:1051E000761C30786C280FD006DC4C2817D0682845
:1051F0000DD06A2814D104E0742810D07A280FD179
:105200000DE044F400140AE044F4801401E044F496
:1052100040147278824202D104F58014761C761C08
:10522000307866280BD013DC582877D009DC0028AA
:1052300075D04528F6D04628F4D047281AD19DE1EC
:1052400018E0632835D0642879D0652812D195E11B
:10525000702873D008DC6728F1D069286FD06E28D9
:105260000DD06F2806D1B5E073282CD0752875D0E5
:10527000782874D05A46179990476D1C75E1C4F38D
:105280000250022809D003280DD0D9F800100428B4
:105290000DD00D6009F1040967E1D9F80010EA1793
:1052A000C1E90052F6E7D9F800100D80F2E70D7061
:1052B000F0E719F8041B8DF8001000208DF80100AC
:1052C000EA46012003E059F804AB4FF0FF306107D4
:1052D0004FF0000102D40DE008F101018846B94207
:1052E0000FDA8045F8DB1AF808100029F4D108E03D
:1052F00008F1010188468142FADB1AF808100029FA
:10530000F6D105985B46A0EB080721463846179A68
:1053100000F0BDFA284400EB080507E04DE029E164
:105320000DE01AF8010B5A4617999047B8F1010899
:10533000F7D25B4621463846179A13E142E00A222B
:105340000092C4F302524FF0000A022A08D059F822
:1053500004CB032A4FEAEC710AD00DE029E02AE0E1
:1053600009F1070121F00702F2E802C1914609E0C4
:105370000FFA8CFC4FEAEC71042A03D14FFA8CFC33
:105380004FEAEC71002907DA0A460021DCF1000C33
:1053900061EB02012D2202E0220504D52B228DF8BB
:1053A0000420012203E0E20701D02022F7E7904623
:1053B00059E00A2102E010220DE010214FF0000A0E
:1053C00000910BE010224FF0000A44F0040408277B
:1053D000009203E008224FF0000A0092C4F3025248
:1053E000022A05D059F804CB0021032A08D009E08D
:1053F00009F1070121F00702F2E802C1914605E038
:105400001FFA8CFC042A01D10CF0FF0C4FF00008AD
:10541000220728D5702806D0009B83F0100353EA9A
:105420000A0305D00EE040228DF80420012208E096
:105430005CEA010206D030228DF804208DF80500C8
:1054400002229046009B83F0080353EA0A030AD124
:105450005CEA010201D1620705D530228DF80420F3
:105460004FF001087F1E582804D034A003900EA8E6
:1054700002900DE036A0F9E753466046009AFFF728
:10548000ADF884460398825C0298401E0290027038
:105490005CEA0100F0D1029806A9081A00F1200A7E
:1054A000600702D524F4803400E00127574502DD6F
:1054B000A7EB0A0000E0002000EB0A01009005982D
:1054C0004144401A0590E00306D45B462146179AF2
:1054D000059800F0DCF90544002706E001A85A46CB
:1054E000C05D179990476D1C7F1C4745F6DBE003B4
:1054F0000CD55B462146179A059800F0C8F905447B
:1055000004E030205A46179990476D1C0099481EB8
:1055100000900029F5DC08E0029802995A460078CC
:10552000491C0291179990476D1CBAF10001AAF12C
:10553000010AF1DC65E10000092801003031323355
:1055400034353637383961626364656600000000BF
:1055500030313233343536373839414243444546A9
:105560000000000000F06AF90544761C307800283D
:105570007FF4ECAD19B02846BDE8F08F620700D487
:10558000062709F1070222F0070CFCE80223E14696
:1055900003F000485FEA080C02D00FF2702C0DE017
:1055A0005FEA045C02D50FF2682C07E05FEAC47C76
:1055B00002D00FF2602C01E0AFF2700C4FF0FF3818
:1055C00023F00043CDF850C065280CD006DC4528F8
:1055D00009D046281DD047283DD13DE0662818D087
:1055E00067287ED138E00021112F01DB112000E077
:1055F000781CCDE9000106A90EA8FFF7D5FADDE970
:105600000F010E9A03910021009207F1010A049103
:105610004DE04FF000400097CDE9011006A90EA81B
:10562000FFF7C2FADDE90F0203920E9B11990022E7
:10563000DDF80CA00093049211B9791C00EB010A6B
:10564000B7EB0A0004D4C0F1FF3007F1010A04905F
:10565000AAEB0700019044E0012F00DA01270021A6
:10566000112F01DD112000E03846CDE9000106A927
:105670000EA8FFF799FADDE90F010E9A03910021B8
:1056800004910092BA4621070CD40399514500DADF
:105690008A46BAF1010F05DD009AAAF10101515CB9
:1056A000302908D0B84202DA10F1040F06DA0121DD
:1056B000CDE9011015E0AAF10101E9E7002805DCB8
:1056C000049901440491AAEB000102E0411C5145F8
:1056D00000DD8A460499401A401C01904FF00040BA
:1056E0000290200704D40198504501DBCDF80480D6
:1056F00000208DF84F0002980DF14F07B0F1004FD8
:1057000025D02B200E9002984FF0020800280CDACA
:10571000404202902D200E9007E00A210298FEF7E9
:1057200047FF3031029007F8011DB8F10001A8F1E0
:105730000108F2DC02980028EFD1791E0E9808705B
:10574000307800F0200040F0450007F8020D12A864
:10575000C01B00F107081498007800B1012000EB8D
:105760000A01019801EBE07105984144401A401E7E
:105770000590E00306D45B462146179A059800F091
:1057800086F805441498007818B15A46179990473E
:105790006D1CE00324D55B462146179A059800F05E
:1057A00076F805441CE00498002807DBDDE90301D6
:1057B000884203DD0098405C179901E0179930207A
:1057C0005A469047049805F10105401C0490019841
:1057D000401E019004D12E205A46179990476D1C07
:1057E000BAF10001AAF1010ADDDC05E017F8010BAE
:1057F0005A46179990476D1CB8F10001A8F10108AD
:10580000F4DC5B462146179A0598ABE62D000000B4
:105810002B000000200000002DE9F0410446002587
:105820001E461746880404D405E039462020B047B8
:105830006D1C641EF9D52846BDE8F0812DE9F041C4
:10584000044600251E461746880404D405E0394660
:105850002020B0476D1C641EF9D52846BDE8F081B4
:105860002DE9F041044600251E469046C80301D5A7
:10587000302700E02027880404D505E0414638465B
:10588000B0476D1C641EF9D52846BDE8F0812DE9AE
:10589000F041044600251E469046C80301D5302736
:1058A00000E02027880404D505E041463846B0478B
:1058B0006D1C641EF9D52846BDE8F0814A68002AAF
:1058C00006D00A68531C0B6010704868401E486080
:1058D00070470A68531C0B60107070470A68531CAD
:1058E0000B6010707047000048656C6C6F204C6F47
:1058F0007261212121202D2D20636F6D70757465DB
:105900007200000000000000000000000000000025
:105910000000000000000000000000000000000087
:105920000000000000000000000000000000000077
:105930000000000000000000000000000000000067
:105940000000000000000000000000000000000057
:105950000000000000000000000000000000000047
:105960000000000000000000000000000000000037
:105970000000000000000000000000000000000027
:105980000000000000000000000000000000000017
:105990000000000000000000000000000000000007
:1059A00000000000000000000000000000000000F7
:1059B00000000000000000000000000000000000E7
:1059C00000000000000000000000000000000000D7
:1059D00000000000000000000000000000000000C7
:1059E000000000000000000000030306010406029E
:1059F000050003051F1C1F1E1F1E1F1F1E1F1E1F2D
:105A00006D616368696E655F6461746100000000C8
:105A10006D616368696E6500737461746500000090
:105A200074680000340000007B5C2269645C223AE8
:105A30005C2225735C225C2C5C226C6F6361746950
:105A40006F6E5C223A5C226C6962726172795C22D0
:105A50005C2C5C2273746174655C223A5C22726512
:105A60007365745C225C2C5C22757064617465548F
:105A7000696D655C223A5C2225735C225C2C5C2299
:105A800074685C223A25645C2C5C227464735C222A
:105A90003A3131317D0000005B7B5C2269645C221D
:105AA0003A5C2225735C225C2C5C22636172644E3A
:105AB000756D6265725C223A5C22335C225C2C5C00
:105AC00022766F6C756D655C223A25645C2C5C22D5
:105AD00074696D655C223A5C2225735C227D5D00F1
